:020000040000fa
:10000000f87f0020a12c00007f250000f7270000ca
:1000100000000000000000000000000000000000e0
:10002000000000000000000000000000d7330000c6
:100030000000000000000000112e00005d350000ef
:100040001b2300001b2300001b2300001b230000b8
:100050001b2300001b2300001b2300001b230000a8
:100060001b2300001b2300001b2300001b23000098
:100070001b2300001b230000850c00001b23000035
:100080001b2300001b2300001b230000ed35000094
:10009000c935000000000000000000001b23000024
:1000a0001b2300001b2300001b2300001b23000058
:020000040000fa
:1000b000f8b5c046f8bc08bc9e467047392c000015
:1000c000f8b5c046f8bc08bc9e467047112c00002d
:020000040000fa
:0800d000100a0000010000000d
:020000040000fa
:1000d800a01300201c0000000000000034120020c3
:1000e8005c000000000000009012002030000000ba
:1000f8000000000020130020200000000000000085
:100108003014002004000000000000003414002017
:100118000400000000000000381400200400000063
:10012800000000003c140020040000000000000053
:10013800401400200400000001000000aaaaaaaa96
:100148004414002004000000000000000400002007
:100158000010000000000000481400200400000007
:10016800000000004c140020040000000000000003
:100178005014002004000000000000005414002067
:10018800040000000000000070110020640000005e
:1001980000000000581400200400000000000000c7
:1001a8005c1400200400000000000000601400201f
:1001b8000400000000000000641400200400000097
:1001c8000000000068140020040000000000000087
:1001d800bc1300201400000000000000d013002011
:1001e80014000000000000006c140020040000004f
:1001f800000000007014002004000000000000004f
:10020800741400200400000000000000781400208e
:100218000400000000000000e413002014000000a7
:10022800000000007c140020040000000000000012
:10023800f813002014000000000000000c14002037
:1002480014000000000000008014002004000000da
:1002580000000000841400200400000000000000da
:10026800a41400200100000000000000a5140020d4
:100278000100000000000000c01200203000000053
:1002880000000000881400200400000000000000a6
:100298008c1400200400000000000000a6140020b8
:1002a8000100000000000000a71400200100000069
:1002b80000000000f01200203000000000000000e4
:1002c800201400200800000000000000281400206e
:1002d8000800000000000000901400200400000046
:1002e8000000000040130020200000000000000073
:1002f8006013002020000000000000008013002090
:1003080020000000000000009414002004000000f9
:1003180001000000d4110020d4110020600000006a
:10032800010000000000000060130020801300207e
:100338004013002000000000000000000000000042
:1003480000000000000000000000000000000000a5
:100358000000000000000000000000000000000095
:100368000000000000000000000000000000000085
:100378000000000000000000000000000000000075
:1003880000000000041000206c01000001000000c3
:100398004300000000000000000000000000000012
:1003a8000000000000000000000000000000000045
:1003b80043000000000000000000000000000000f2
:1003c8000000000000000000000000000000000025
:1003d80043000000000000000000000000000000d2
:1003e8000000000000000000000000000000000005
:1003f80043000000000000000000000000000000b2
:1004080000000000000000000000000000000000e4
:100418004300000000000000000000000000000091
:1004280000000000000000000000000000000000c4
:100438004300000000000000000000000000000071
:1004480000000000000000000000000000000000a4
:100458004300000000000000000000000000000051
:100468000000000000000000000000000000000084
:10047800d53800001136000000000000c415000047
:10048800053b0000043b0000043b0000043b000067
:10049800043b0000043b0000043b0000043b000058
:1004a800043b0000043b0000ffffffffffffffffce
:1004b800ffffffffffff00000100415343494900d0
:1004c8000000000000000000000000000000000024
:1004d80000000000000000000000415343494900ab
:1004e8000000000000000000000000000000000004
:1004f8000000000000000000000000009814002028
:1005080004000000000000009c140020040000000b
:1005180000000000000000200400000000000000af
:10052800a0140020040000000000000000000000eb
:10053800000000002222222222222222222222221b
:020000040000fa
:10054800f0b59db00490029105920393002805d060
:1005580083690693002b01d102f0e4f8974b029ac5
:100568009a4263d1049b5b680293029b9b891b0799
:100578006ad5029b1b690693002b65d000220aab43
:100588000f9220325a7610329a76059e3378002bd5
:1005980001d0252b62d1059bf41a0cd02300059ab3
:1005a8000299049802f0c0fb431c00d17de10f9b27
:1005b8001c1905930f943378002b00d175e10122a3
:1005c80000230aac5242626006a954327c4f52188a
:1005d8000a93e360a360013613702237317805224d
:1005e800380003f095f9751c002839d12168cb062d
:1005f80004d5532306aa9b1820221a700b0704d58a
:10060800532306aa9b182b221a7033782a2b2fd033
:10061800350000210a20e3682a786e1c303a092a3e
:1006280000d86ce0002929d0e36027e0654b029ae6
:100638009a4202d1049b9b6896e7634b029a9a42be
:1006480093d1049bdb688fe70299049801f0b4f812
:10065800002893d0012040421db0f0bd013695e737
:100668000123c01b834022682e0013432360b5e793
:10067800039a08ca002b3cdbe36003922b782e2bed
:1006880009d16b782a2b42d1039b023504cb002a6f
:100698003adb626003934a4e2978283603223000f9
:1006a80003f036f9002806d04023801b83402268d7
:1006b800013513432360424f297838006b1c06220a
:1006c8002c300593217603f023f95322237e06a9c3
:1006d8005218692b32d042d8582b77d02ad8002b01
:1006e80000d1f0e0522106a809180b7001230e93df
:1006f8005ee05b42e36002230b432360bde74343b4
:1007080001219b18350087e701225242c1e70023e7
:100718000a201a000135636029786e1c30390929ce
:1007280003d9002bb7d06260b5e7424301235218c2
:100738003500f1e7632b32d0642bd3d103990a9ba0
:1007480020c90391190602d45b0600d52db21c4faf
:10075800002d02da2d236d4213700a2655e0702b06
:1007680000d1a9e010d86f2bbcd103990a9a20c9ef
:100778000391110602d4520600d5adb2104f0a26d5
:100788006f2b3dd108263be0752beed0782ba9d1f5
:10079800552306aa9b18782211371a701ae052219d
:1007a800039b06ad01cb4919087001210393216110
:1007b80000235224137006abe41859e0601300209c
:1007c800343100008013002040130020552206a970
:1007d80052181370039a0a9b20ca03921a0602d46d
:1007e8005a0600d5adb20122134202d01f3213437c
:1007f8000a931026002d03d120230a9a9a430a92bd
:10080800532306aa9b1800221a700b9b0c93002beb
:1008180003db04220a9991430a91002d05d1532242
:1008280006a952181400002b0cd0532306aa9b18b3
:100838001c003100280000f0b5fd7b5c013c2370f2
:10084800ae423ed9082e0ed101220a9b13420ad08d
:100858000b9b06930e9b0793079a069b934202dc19
:100868003023013c2370532306aa9b181b1b0e93ad
:10087800234b09aa00930aa9029b049801f0f6f8f1
:10088800431c12d00e9b22000299049802f04cfae5
:10089800431c0ad00a9b06939b0729d4099a0d9bef
:1008a800934200da13005a1c24d1029b9b895b06f1
:1008b80000d5cfe60f98cfe62023226813432360a4
:1008c80066e70500b5e723611400d1e7292206a9e8
:1008d800012352180498029902f026fa431ce4d026
:1008e80001340d9b099a06939b1a9c42eedbd5e7cf
:1008f8000024f6e70f9ad31806920f9345e6c046f0
:04090800312d00008d
:020000040000fa
:10090c00f0b5c64600b584b001900f000293960076
:10091c00300001f02ffe051e00d1bae0542001f08a
:10092c0029fe041e58d005633200a521280003f0cf
:10093c0071f8236b9846002f54d03b783422a35483
:10094c00002b09d0012321003431fa5cca54002a4f
:10095c0002d00133102bf8d143230022e2540a9d1c
:10096c00042d00d90425e56265640027a764231dc6
:10097c000393180003f0f5f82000183003f0f1f899
:10098c00246105235b1ba3616462e7645023e75475
:10099c00301f4044493b9843029a019902f08cfe67
:1009ac0020600b9b002b00d01c6002f021ff3c4a06
:1009bc001368013313603b4b1b68002b16d03a4b6a
:1009cc001b68002b17d1374b1b68db6ae26a93421a
:1009dc0011d8344b1c600ee0280002f082fd01207f
:1009ec00404258e034230022e254b8e72d4b1c60ff
:1009fc001368012b23d02d4a136801331360e36a6b
:100a0c002b4a1268934201d9294a13609800c018e6
:100a1c008000284b1818039902f06dff02f08cff30
:100a2c00214b1b680120002b35d01e4b1b68da6a4a
:100a3c00e36a9a422fd202f0cffe01202be01d4d2b
:100a4c00280002f04dff2800143002f049ff280066
:100a5c00283002f045ff28003c3002f041ff28000e
:100a6c00503002f03dff144e300002f039ff134db0
:100a7c00280002f035ff124802f032ff114802f054
:100a8c002fff114802f02cff104b1e60104b1d6005
:100a9c00b1e70120404204b004bc9046f0bdc04612
:100aac00581400204c1400207c14002064140020e6
:100abc006814002070110020bc130020d0130020fb
:100acc00e41300200c140020f81300205014002014
:040adc00541400208e
:020000040000fa
:100ae000f0b557464e464546de46e0b5040083b0b5
:100af0000d00924699468b4230d82dd0494650463b
:100b000002f0d0fe29000600200002f0cbfe331ace
:100b10009846203b9b4633d45a4653469340424620
:100b20001f00534693401e00af423ad8af4200d157
:100b30007be05b46a41bbd41002b00da78e000227d
:100b400000230092019301235a469340019301230d
:100b500042469340009328e08242cfd900220023ee
:100b6000009201930c9b002b01d01c605d600098eb
:100b7000019903b03cbc90469946a246ab46f0bdf5
:100b8000424620239b1a5246da40414613004a4609
:100b90008a40170042461f43534693401e00af420f
:100ba000c4d900220023009201934346002bd9d0e0
:100bb000fb079c46614672080a437b0846460ee0e6
:100bc000ab4201d1a2420cd8a41a9d4101202419a4
:100bd0006d410021013e24184d41002e06d0ab424c
:100be000eed9013e24196d41002ef8d100980199eb
:100bf0005b4600196941002b25db2b005a46444611
:100c0000d3402a00e2401c005b461500002b2bdb82
:100c100026005f46be40330026004746be403200f5
:100c2000801a9941009001919ce7a342b9d880e7ce
:100c30004246202300219b1a0022009101920122aa
:100c4000da40019283e7424620239b1a2a00464657
:100c50009a402300f340444613432a00e2401c001c
:100c60005b461500002bd3da2023424626009b1a50
:100c7000de402f00b4464646b74066463b0033434d
:040c8000cae7c046b9
:020000040000fa
:100c8400f8b5ce46474680b55b4b9b7d002b17d00d
:100c9400594a137edbb2927d52b2002a14db564ac3
:100ca400137edbb2927dd20702d5db0700d588e044
:100cb400514a137edbb2927d520701d55b0752d4b1
:100cc4000cbc90469946f8bd5bb2002be7da4a4b60
:100cd4005b8b07221340e2d0484ce38502f088fa8c
:100ce400454b84221a752c230022e254636a002b9c
:100cf400d5d0424a906a9847d1e78368591c8160ed
:100d04006146cb5c1385b168137e4d462b420fd0f0
:100d14008c420dd953683b40012beed143469b686e
:100d2400591c4546a9605b0061465b5a1385eae796
:100d3400324b9a685b689a42bad3304b00221a75d8
:100d44005a602d4a01211175db68002bb0d02b4a63
:100d540010699847ace7294988690a6a541c0c62ef
:100d64005200135217e0254a2c23d35c002ba7d042
:100d7400224b1a6adb699a42a2d21f4a138d9bb294
:100d8400516807220a40012ae5d01c4a9069116a79
:100d94004c1c14624354194b1a6adb699a4200d002
:100da4008ee7164b00222c215a54da61124a58312c
:100db40011755b6a002b00d182e7104a906a98474c
:100dc4007ee70e4b1b7d002b00d171e70b4b9a681d
:100dd4005c68094b1b7edb07aad5a242a8d2074b4d
:100de4001b689c46044a0727044b984618001e00bb
:100df400012399468ee7c046001c00429012002051
:020000040000fa
:100e0400f0b585b004000191002300930025442629
:100e1400002743e0013ba3632368002b09d0236927
:100e2400002b0ad102f08cfd01230093009805b039
:100e3400f0bd02f093fca060f1e72000103001f057
:100e440025fb0028eed002f0cbfcebe702f078fda6
:100e540000230093eae702a802f0dafc28e0a75591
:100e640030e04523e75432e002f0c6fca06801f00c
:100e74007ff9009002f064fd39e0200001f008fae7
:100e840000f086fd09e0200001f002fa00f080fd88
:100e9400200002f05ffd002838d1012502f0acfcef
:100ea400a36b002bb6d1019b002bcfd0002dd2d049
:100eb40002f046fd02f0aafd02f09efca35d5bb2c7
:100ec4000133ccd04523e35c5bb20133c9d002f0db
:100ed40037fd01a902a801f09ffd0028d3d120000d
:100ee40002f038fd0028c8d02368002bbcd02000b5
:100ef4002430019902f024fc200001f0c9f900f02b
:100f040047fd0028c9d102f06bfcc6e7009b002b0b
:100f140000d18be702f070fc616a002903d0236bd7
:100f24001b680521c91aa06801f060fb02f008fde6
:060f3400002300937ae7a0
:020000040000fa
:020f3a007047fe
:020000040000fa
:100f3c00f8b505000a00464b1c7de4b22c215b5c25
:100f4c00dbb2002b7ed1002c00d07ee000287ad0c2
:100f5c000068002877d0002a00d13e4a0301934252
:100f6c003ad8010b0005002301f0f4ff80235b024b
:100f7c00181a0021002866d0374a13680224a343ac
:100f8c001360d369002bfcd180b2334b98816b6812
:100f9c00022b47d0304a13683048034049031943a9
:100fac0080235b04194311605168ab68e868034304
:100fbc002b4801400b4369680b435360264ad369a5
:100fcc00002bfcd1244a136802210b431360d36914
:100fdc00002bfcd1012436e0c300934209d8410b0d
:100fec00c004002301f0b6ff80235b02181a022113
:100ffc00c0e743001b18934225d800270600390090
:10100c008019794180197941060c0b0407043800ca
:10101c001e433100002301f09dff80235b02181a50
:10102c000421a7e70c4a13680c48034049031943f1
:10103c0011605168ab68e8680343472081430b4358
:10104c005360bbe700242000f8bd1c00fbe7c04642
:10105c0090120020006cdc02001c0042ff1ffff00d
:04106c00b8dfffffeb
:020000040000fa
:10107000f0b5d6464f464646c0b5394b1b68002be7
:1010800063d1384b1f6801371f60002f38d0364bb3
:101090001b680026bb4244d80026344b984699462c
:1010a000334b9a4643461b681b68002b35d04b4692
:1010b0001b68db68dc6863689f4243d3251d2800fa
:1010c00002f002faa36a002b03d02000183002f0cd
:1010d000fbf9e36a52461268934201d9244a13602d
:1010e0009800c0188000234b1818290002f009fc52
:1010f000214b1b68e26adb6a9a42d3d30126d1e70f
:101100001a4a11681d4b1868106019601c4a136850
:101110000133136002f0b0f8b9e7134b01225242d9
:101120001a60154b1b68da6a93009b189b00114ae2
:101130009b58012b00d90126124b1b68002b09d0ac
:10114000012607e0084a1360ebe70f4a13680133f2
:101150001360002630001cbc90469946a246f0bda4
:10116000601400208014002070140020501400200f
:1011700068140020701100204c140020541400202a
:0c11800074140020841400207814002057
:020000040000fa
:10118c00f7b58a8905000c0013075dd44b68002b5a
:10119c0004dc0b6c002b01dc0020febde76a002f89
:1011ac00fad000232e682b6080235b011a4034d0c8
:1011bc00606da3895b0706d56368c01a636b002b4f
:1011cc0001d0236cc01a0200216a00232800e76ab0
:1011dc00b847a189431c06d12b681d2b31d82c4a4a
:1011ec00da40d3072dd50023636023692360cb0439
:1011fc0005d5431c02d12b68002b00d16065616bb7
:10120c002e600029c8d023004433994202d0280014
:10121c0000f060ff00206063bfe70123216a280013
:10122c00b847431cc5d12b68002bc2d01d2b01d055
:10123c00162b01d12e60afe74023a2891343a38163
:10124c00abe740230b43fae70f69002fa4d00b68e0
:10125c000f60db1b01930023920700d14b69a36045
:10126c00019b002b00dc97e7019b3a00216a2800c8
:10127c00a66ab047002806dc40230120a289404220
:10128c001343a38189e7019b3f181b1a0193e7e7de
:04129c0001004020ed
:020000040000fa
:1012a000002243088b4274d303098b425fd3030aa5
:1012b0008b4244d3030b8b4228d3030c8b420dd3b8
:1012c000ff22090212ba030c8b4202d31212090246
:1012d00065d0030b8b4219d300e0090ac30b8b4284
:1012e00001d3cb03c01a5241830b8b4201d38b0332
:1012f000c01a5241430b8b4201d34b03c01a5241d7
:10130000030b8b4201d30b03c01a5241c30a8b4219
:1013100001d3cb02c01a5241830a8b4201d38b0204
:10132000c01a5241430a8b4201d34b02c01a5241a8
:10133000030a8b4201d30b02c01a5241cdd2c3091a
:101340008b4201d3cb01c01a524183098b4201d396
:101350008b01c01a524143098b4201d34b01c01a81
:10136000524103098b4201d30b01c01a5241c308f9
:101370008b4201d3cb00c01a524183088b4201d368
:101380008b00c01a524143088b4201d34b00c01a54
:101390005241411a00d20146524110467047ffe7c0
:1013a00001b5002002f0eafb02bdc0460029f7d0db
:0413b00076e7704725
:020000040000fa
:1013b40010b5002864d13d4b1b78002b63d13b480a
:1013c400012202700b6803618b6843614b68836080
:1013d400002343608362c362437082840c23cb5630
:1013e40003760d23cb5643760b69c3614b690362c5
:1013f4008b698364cb69c3640b6a03654b6a436579
:101404008b6a8365343002f0c5f900283ed0274842
:10141400383002f0bff900283bd024483c3002f0b9
:10142400b9f9002838d02148002300220021403097
:1014340001f040fa002832d01c4800230022002189
:10144400443001f037fa00282cd0184b1b7e5bb2d5
:10145400013309d0154b5b7e5bb201330ad0134bc9
:1014640002221a73002010e010490b695b691048ce
:101474009847efe70d490b691b680e489847eee75c
:101484000120404201e00120404210bd01204042c1
:10149400fbe701204042f8e701204042f5e7012044
:1014a4004042f2e701204042efe7c04634120020f8
:0814b400df390000212b0000cc
:020000040000fa
:1014bc00f0b5d646474680b585b004000091019240
:1014cc001f00002544260023984632e03a0000997c
:1014dc00200001f013f8636a002b09d1002810d109
:1014ec0002f02afa012005b00cbc90469a46f0bdd9
:1014fc002000243000f0c6ff0028f1d002f06cf977
:10150c00eee702f069f9ebe702f016fa0020eae7e1
:10151c0002a802f079f919e04346a35520e04523cf
:10152c004246e25421e0200000f0aefe00f02cfa1e
:10153c00012502f05df9a36be26b9342c6d3022f37
:10154c00c4d0019b002bdfd0002de1d002f0f4f9c8
:10155c0002f058fa02f04cf9a35d5bb20133dbd018
:10156c004523e35c5bb20133d9d002f0e5f901a964
:10157c0002a801f04dfa002817d102f039f9a36b3b
:10158c009a46e56b02f0d8f9aa45ccd12000103070
:10159c00019902f0d1f8200000f076fe00f0f4f989
:1015ac000028c5d102f018f9c2e7200000f06cfe4b
:0815bc0000f0eaf9002096e7b7
:020000040000fa
:1015c400002020202020202020202828282828200f
:1015d4002020202020202020202020202020202007
:1015e400208810101010101010101010101010106f
:1015f400100404040404040404040410101010105f
:101604001010414141414141010101010101010128
:10161400010101010101010101010101101010107a
:1016240010104242424242420202020202020202fa
:10163400020202020202020202020202101010104e
:101644002000000000000000000000000000000076
:101654000000000000000000000000000000000086
:101664000000000000000000000000000000000076
:101674000000000000000000000000000000000066
:101684000000000000000000000000000000000056
:101694000000000000000000000000000000000046
:1016a4000000000000000000000000000000000036
:1016b4000000000000000000000000000000000026
:0116c4000025
:020000040000fa
:1016c600f0b5c64600b584b004000091019200272b
:1016d60044260023984638e00099200001f04dff8b
:1016e6006b1ea3632369002b06d102f028f90120a3
:1016f60004b004bc9046f0bd2000103000f0c5feda
:101706000028f2d002f06bf8efe702f018f900209b
:10171600eee702a802f07bf821e04346a35528e055
:1017260045234246e25429e0200000f0b0fd00f0d7
:101736002ef909e0200000f0aafd00f028f92000ab
:1017460002f007f9002835d1012702f054f8a56bfd
:10175600002dc1d1019b002bd7d0002fd9d002f08c
:10176600eef802f052f902f046f8a35d5bb20133df
:10177600d3d04523e35c5bb20133d1d002f0dff86e
:1017860001a902a801f047f90028d3d1200002f0f0
:10179600e0f80028c8d020002430019901f0cfffde
:1017a600200000f074fd00f0f2f80028ccd102f021
:0817b60016f8c9e700209be7cb
:020000040000fa
:0217be00704772
:020000040000fa
:1017c000364b70b51d6806000c00002d05d0ab69c6
:1017d000002b02d1280000f0a9ff314b9c420fd111
:1017e0006c680c23e25e93b219072dd4d90611d48c
:1017f00009230120336037331343a381404270bd76
:10180000284b9c4201d1ac68ebe7274b9c42e8d1c6
:10181000ec68e6e75b0713d5616b002908d023006d
:101820004433994202d0300000f05afc0023636335
:101830002422a3899343a381002363602369236047
:101840000823a2891343a3812369002b0bd1a02174
:101850008022a389890092000b40934203d021008b
:10186000300000f0f3fb0123a289134011d00023c4
:10187000a36063695b42a361002023698342bed1f8
:101880000c23e25e1306bad540231343a38101382b
:10189000b5e7920700d46369a360ede794140020d4
:0c18a00060130020801300204013002083
:020000040000fa
:1018ac0070b50c0000285ed1354b1b7b5bb2022b54
:1018bc0002d00120404270bd31483249343001f031
:1018cc0023fe002852d02e4b5b78002b39d12c4ba9
:1018dc005b68002b3cd12a4b9868002849d05b6987
:1018ec001d00197b10330022002907d001328242df
:1018fc003fd01d001033297b0029f7d101232b7316
:10190c001f4b2b602c7100236b71230702d51c4bd2
:10191c00012159701a494b6801334b608b8c1b04a5
:10192c00ff2002401a43aa608b8c01339bb2154aec
:10193c00934216d012488384343001f034ffa868e7
:10194c00b9e70f48343001f02eff01204042b2e7d6
:10195c002307c0d50a48343001f025ff012040424e
:10196c00a9e70123e6e701204042a4e70120404219
:10197c00a1e70348343001f016ff012040429ae7fa
:08198c0034120020ffff0000ef
:020000040000fa
:10199400f0b5c64600b501f02fff2d4b1a68013a89
:1019a4001a601b680024002b03d12a4b1b68002bf0
:1019b40005d101f0c5ff200004bc9046f0bd002510
:1019c400254eb046254f3368002b22d04346db68b2
:1019d400dd682800183001f075fd2c1d200001f091
:1019e40071fdeb6a3a68934201d91c4a136098006e
:1019f400c01880001a4b1818210001f080ff194b01
:101a04001b68db6aea6a9a42ddd3174b01221a602b
:101a1400d9e7002d01d001f02dfc144b1c68002cdb
:101a24000ed0114e012502e0013c002c05d0fff739
:101a34001dfb0028f8d03560f6e70c4b00221a6035
:101a4400094b1c68002cb4d001f0cafe0124b0e795
:101a54006014002058140020e413002068140020af
:101a6400701100204c1400208414002078140020ed
:020000040000fa
:101a7400f7b5150001938a680b6900900c00934236
:101a840000da130022002b6043321278002a01d0be
:101a940001332b6023689b0602d52b6802332b602d
:101aa400062723681f4027d0230043331b785a1e80
:101ab40093412268920630d422000199433200985f
:101ac400089eb047431c25d0062320682a68e16895
:101ad40003400025042b03d18d1aeb43db171d4073
:101ae400a3682269934201dd9b1aed180027bd42c9
:101af40020d1002010e00137e3682a689b1abb421a
:101b0400d2dd22000123193201990098089eb047c2
:101b1400431cf0d101204042febd3020e118433186
:101b2400087021005a1c45310978a2184332023347
:101b34001170c1e7220001231a3201990098089e0e
:0a1b4400b047431ce6d00137d1e79b
:020000040000fa
:021b4e007047de
:020000040000fa
:101b5000f8b505000e001400002804d08369002b9e
:101b600001d100f0e3fd294b9c4234d16c68a3699c
:101b7000a360a3891b0738d52369002b35d00c231c
:101b8000e25e80239b01f7b2f6b21a4236d0236898
:101b90002269981a6369834205dc2100280000f05d
:101ba00069ff002827d1a3680130013ba3602368a7
:101bb0005a1c22601f706369834204d0a389db072b
:101bc00007d50a2e05d12100280000f053ff002878
:101bd00011d13000f8bd0e4b9c4201d1ac68c6e774
:101be0000c4b9c42c3d1ec68c1e721002800fff7f1
:101bf000e7fd0028c3d001267642eae71343a3811c
:101c0000226e054b13402366c1e7c04660130020d7
:0c1c10008013002040130020ffdfffffc6
:020000040000fa
:101c1c0010b52a4b1b68002b03d0294b01221a60ec
:101c2c0010bd274b00221a60264b1b681b6b264ae3
:101c3c001968914202d1596891422fd0214b1868f2
:101c4c001968343101f090ff204b1b689a00d218b0
:101c5c0092001f495258002a06d1013b9a00d21813
:101c6c0092005258002af8d019489a00d1188900cd
:101c7c0041184c6864684c60d21892000832821883
:101c8c00944212d09a00d218920011498a185268c4
:101c9c00d1680c4a11600d4a1360c1e799689142f2
:101cac00ccd1db689342c9d1cee760689a00d218d8
:101cbc00920007498a185060e4e7c046601400207f
:101ccc00841400204c140020a5a5a5a568140020a0
:041cdc007011002063
:020000040000fa
:101ce00070b5284b5b78002b12d0274b1b6a5b0426
:101cf0001ed5264b00221a70254b1b78002b06d0d0
:101d0000234b00221a70204b802252039a6170bd2f
:101d100000210020fff7cafd1a4b5860431ce4d095
:101d2000184b01225a701d321a4900f045f9dce7c0
:101d3000164b1b78002bdfd101f09cfd124b80224b
:101d400052035a61114b01221a70134b1a68511c2d
:101d5000196010490b4d2c0010342031200001f087
:101d60005bf9200001f07bfe02006868210000f0b2
:101d700023f90122094b1868002352422100fff782
:101d80009dfbb9e7c012002000440041a4140020cc
:101d9000a5140020d03200008c14002088140020ec
:020000040000fa
:101da00070b5294b5b78002b12d0284b1b6a1b04a3
:101db0001ed5274b00221a70264b1b78002b06d00d
:101dc000244b00221a70214b802292009a6170bd30
:101dd00000210020fff76afd1b4b5860431ce4d034
:101de000194b01225a701d321b4900f0e5f8dce75f
:101df000174b1b78002bdfd101f024fd134b802201
:101e000092005a61124b01221a70144b186801f0ab
:101e1000d4fd0028d0dd0c4e340010340f4d0122cb
:101e2000524221002868fff74efc200001f017fe07
:101e300002002100706800f0bff8286801f0bdfdc5
:101e40000028ecdcb8e7c046f01200200044004156
:101e5000a6140020a71400200437000088140020d6
:020000040000fa
:101e6000f8b50323cd1c9d43083506000c2d1fd269
:101e70000c25a9421ed8300001f0a7fc25490a68ac
:101e80001400002c1ad1244f3b68002b04d12100f0
:101e9000300001f0cffb38602900300001f0cafbb0
:101ea000431c2ad10c233000336001f040fd03e0d5
:101eb000002ddeda0c2333600020f8bd23685b1ba5
:101ec00018d40b2b03d92360e418256003e0636862
:101ed000a2420dd10b60300001f029fd2000072245
:101ee0000b30231d9043c21ae7d01b1aa350e4e71e
:101ef0005360f0e722006468c3e70323c41c9c43db
:101f0000a042e2d0211a300001f094fb431cdcd146
:0c1f1000c8e7c046981400209c14002074
:020000040000fa
:101f1c001d4b00229a619a8c80218a439a841a0064
:101f2c001023d1680b42fcd0184b1a68920e3f2a32
:101f3c0027d0174b1b689b059b0d92021343124a2b
:101f4c0093621023d1680b42fcd00f4b02229a846f
:101f5c001a001023d1680b42fcd00e4b0e4a5a606b
:101f6c001a0053785bb2002bfbdb0a4b0b4a5a80ee
:101f7c000b4a5a800b4b0c4a1a62034b00221a6212
:101f8c007047203ad5e7c046000800402460800026
:101f9c0028608000000c0040000701001940000080
:0c1fac001c4000000004004080300100d8
:020000040000fa
:101fb800f0b583b00f000091150000f049fe061e31
:101fc8003ad00024002d38d0002f36d007683823a7
:101fd8009c46bc44634601931949604601f096fa51
:101fe80001282ad100237371fe6218203856431c39
:101ff8000bd0bb6d032b04d980214900fff7a3fd4b
:1020080008e00021fff79ffd04e03b699b69290078
:102018000098984738004030094901f065fa0024d3
:10202800012803d0019801f0c0fb06e03023fc5cd6
:1020380063425c41e4b2f5e70024200003b0f0bd40
:04204800ffff000096
:020000040000fa
:10204c00f7b502268b8905000c00334206d00b0035
:10205c0047330b600b6101234b61f7bd01ab6a4643
:10206c0000f0a8fd009907002800fff7f3fe0028f8
:10207c000ed10c22a35e9a05efd4032293431e4388
:10208c0023004733236023610123a6816361e4e7c6
:10209c000f4bab628023a28920601343a381009b6a
:1020ac0020616361019b002b0dd00e23e15e2800a3
:1020bc0001f0f0fa002806d00322a38993431a00fa
:1020cc0001231343a381a0893843a081c5e7c046ef
:0420dc00313a000095
:020000040000fa
:1020e00070b50500002910d00c1f2368002b00da02
:1020f000e418280001f069fb1d4a1368002b05d184
:1021000063601460280001f012fc70bda34209d97d
:10211000216860188342f3d118685b684118216018
:10212000eee713005a68002a01d0a242f9d91968d3
:102130005818a0420bd1206809185818196082421b
:10214000e0d110685268411819605a60dae7a0427d
:1021500002d90c232b60d5e721686018824203d195
:10216000106852684118216062605c60cae7c0462e
:04217000981400209f
:020000040000fa
:1021740070b5041e3cd0c26a1e4b1b68db6a9a42cf
:102184002ed28369002b05db1a4b1b68d96a052301
:102194005b1a836193009b189b00174ad3186269ea
:1021a4009a4205d0134b1b68db6ae36201201ee0f0
:1021b400251d280001f086f90e4b1b68db6ae362db
:1021c4000e4a1268934201d90c4a13609800c01851
:1021d4008000094b1818290001f091fb012006e04a
:1021e400044b1b68406cdb6a98428041404270bdde
:1021f4000020fce74c14002070110020681400201b
:020000040000fa
:10220400f0b5c6461f4a204b00b50021934203d2c5
:10221400197001339342fbd10b231c4a9c46083ba3
:1022240098461368546819000026214311d01700fa
:1022340091680c3700290fd11a19002c03d01e7095
:1022440001339342fbd13a001368546819002143c7
:10225400edd104bc9046f0bd6146c91a1d19511850
:10226400002c05d05a1c505c187013009542f9d10b
:10227400434623405a1e9341a4081c19a4003f1945
:102284003a00e1e70400002000000020d80000002c
:020000040000fa
:1022940070b5050001f0b0fa4523ec5c64b2002c83
:1022a40004dd6b6a2e002436002b1fd14523ff2248
:1022b400ea5401f045fb01f09ffa4423ec5c64b25c
:1022c400002c04dd2b692e001036002b1dd1442375
:1022d400ff22ea5401f034fb70bd01f0effb013c36
:1022e40064b2002ce2d06b6a002bdfd0300000f027
:1022f400cdf80028f3d0f0e701f0e0fb013c64b234
:10230400002ce4d02b69002be1d0300000f0bef8a3
:062314000028f3d0f0e701
:020000040000fa
:02231a00fee7dc
:020000040000fa
:10231c0070b504000d00174b1e68174b186804307d
:10232c0001f0ccf8631c0dd03419134b1b685c60a6
:10233c00a64210d9114b18680f4b1968043100f0e4
:10234c0025ff70bd002defd00b4b196804310c48e4
:10235c0001f0d1faf5e70b4b1868074b19680431fb
:10236c0000f014ff084b1b68a342ead9064b1c6013
:10237c00e7e7c046801400204c14002054140020c1
:0c238c00f81300205014002070140020f2
:020000040000fa
:10239800f8b51c4b07001e68b369002b02d130004a
:1023a80000f0c0f94836b4687368013b04d5336857
:1023b800002b1cd03668f6e70c22a55e002d14d140
:1023c8002000114b256625606560a560e3602561e6
:1023d8006561a56108222900583001f01dfb65637d
:1023e800a563a564e5642000f8bd6434dde7042135
:1023f800380000f07fff041e3060dbd10c233b6007
:0c240800f1e7c046803b00000100ffff30
:020000040000fa
:10241400f0b585b001900e00140001f00ffb012807
:102424000bd1731efe2b08d8050002ab1e710027ca
:10243400af4212d1300005b0f0bd23003200583352
:1024440003a9019800f084ff0500431cefd1402349
:10245400a2891343a3810600ece703abd95da3680b
:10246400013ba360002b04daa269934207db0a292b
:1024740005d023685a1c226019700137d8e722005e
:0c2484000198fff763fb431cf7d1e4e76d
:020000040000fa
:1024900070b5c368dc6825001835280001f014f811
:1024a000134b1b68002b1ed1251d280001f00cf8d2
:1024b000e36a104a1268934201d90e4a13609800e9
:1024c000c01880000c4b1818290001f01afa0b4ba9
:1024d0001b68e26adb6a00209a4203d9084b01229a
:1024e0001a60013070bd2900064801f00afaeee7d3
:1024f0006014002068140020701100204c1400208b
:0825000084140020e413002004
:020000040000fa
:1025080070b504001600856b026c002a0cd10020ff
:102518002368002b02d00135a56370bda06800f0c8
:1025280097f90023a360f6e7002e0ed1406801f06a
:1025380049fa6368226c9446634463603000a26879
:102548009342e8d323686360e5e7c06801f03afa8c
:10255800236c5a42e3689b18e36021688b4203d2dc
:10256800a3689c466244e2600020022ed3d1002d6d
:06257800d1d0013dcfe7c8
:020000040000fa
:02257e00fee776
:020000040000fa
:1025800070b50400430702d007239c43083401f0d0
:102590003ffa134b1b68002b0ed0124b1b681c1903
:1025a000114a94420ed8a3420fd3fff7f3f901f07a
:1025b000e3fa0025280070bd094a0c4b07218b4324
:1025c0001360eae7fff7e6f9f1e7054a1568ed1849
:1025d000044b1c60fff7def9002debd1e7e7c046a6
:1025e0004414002048140020f70f00000c000020c5
:020000040000fa
:1025f00070b5041e09d0436c8b4200d20b00e26a16
:102600009a4202d0a16c012900d070bde362a16999
:10261000002902db0521cb1aa36193009a189200ce
:102620000c4b9a1863699342efd1251d280000f0e6
:102630004bffe36a084a1268934201d9064a1360c5
:102640009800c0188000034b1818290001f059f9b0
:0c265000dbe7c046701100206814002079
:020000040000fa
:10265c0030b583b0114c124b01930125009500232a
:10266c00802221000f48fef74bf921000c310e4b54
:10267c0001930095002380220c48fef741f92100bc
:10268c0018310b4b01930095002380220948fef76b
:10269c0037f900f015fa03b030bdc04638350000ec
:1026ac0034140020093b000038140020113b0000ba
:0826bc003c140020193b000052
:020000040000fa
:1026c400f0b5c64600b5144b9846144f144e1d0081
:1026d40043461b68002b17d001f08ef8fb68dc68ba
:1026e400201d00f0effe3368013b33602b68013b93
:1026f4002b6001f025f9206b00f0f7fe200000f0bc
:10270400f4fe2b68002be7d1064b1b68012bdfd9a5
:1027140001f066f8dce7c0465c1400200c140020cd
:08272400581400207011002080
:020000040000fa
:10272c00836913b50400002b28d18364c36403654b
:10273c00134b144a1b6882620193984201d1012306
:10274c0083612000fff722fe60602000fff71efe71
:10275c00a0602000fff71afe0022e06004216068f0
:10276c0000f004fb01220921a06800f0fffa02220c
:10277c001221e06800f0fafa0123a36113bdc046f0
:08278c00803b0000313a00001f
:020000040000fa
:1027940070b504000d0001f02ff82268216ce36b82
:1027a4004b43d018a0600020a06362605b1ad3186a
:1027b400e360ff234422a3540132a354002d0fd11c
:1027c4002369002b03d101f0bbf8012070bd200068
:1027d4001030fff75bfe0028f5d001f001f8f2e7b6
:1027e4002000103001f080f82000243001f07cf843
:0227f400e9e713
:020000040000fa
:0227f600fee7fc
:020000040000fa
:1027f80070b5002826d0144b1a7d0023002a1fd15b
:10280800114b1860596001321a7500230f4c0125cd
:10281800072602e0c25c22850133227e2a4209d0c3
:10282800994207d062683240012af3d15a00825a8d
:102838002285f1e7044a9360044b01229a7501232b
:10284800180070bd0023fbe790120020001c004216
:020000040000fa
:1028580070b5041e23d0836c013b8364c26a416c4b
:102868008a421ed00020002b00d070bd251d2800f4
:1028780000f026fe606ce06205231b1aa3610a4b78
:102888001b68984201d9084b18608300181880000b
:10289800064b1818290001f030f80120e5e7002060
:1028a800e3e70020e1e7c04668140020701100202b
:020000040000fa
:1028b80070b504001d00002906d001291bd0002393
:1028c8000360012040421fe00020012b1cd8032296
:1028d8000021013000f073fc2060002810d0012d89
:1028e8000ed1002300220021fef7e4fd0138434207
:1028f800584140b208e01900100001f033f8206098
:0a2908002068431e984140b270bde4
:020000040000fa
:10291200f8b504000e0001f002f90500a26b0027d1
:10292200e36b93420bd94523e35c5bb20132a263b2
:102932005a1c09d001335bb24522a3540127280057
:1029420001f011f93800f8bd636a0137002bf6d0a7
:1029520020002430fff79bfd0028f0d0002e02d08b
:0a29620001233360ebe70127e9e7ea
:020000040000fa
:10296c00bff35f8f62b6124bc32080001a58114917
:10297c001140c02212040a431a508022d2011a605c
:10298c0004301a581202120ac02109060a431a50be
:10299c00802212031a60c52189005a58ff208243f5
:1029ac003f3802435a50802252031a607047c04687
:0829bc0000e100e0ffff00ff55
:020000040000fa
:1029c400114b124a1a60124a9a81c02292025a602a
:1029d4001a00d369002bfcd10b4a136802210b4364
:1029e4001360d369002bfcd10a4b00229a61da618f
:1029f4001a622c215a545a621a605a609a601a75e3
:102a0400da60da857047c046001c00420401314098
:082a14002bf6ffff90120020d9
:020000040000fa
:102a1c0070b504000d0000f0ebfe114b1a682b682a
:102a2c00591c17d061680f4800682668864202d08e
:102a3c00012691420fd9501a834203d800232b60f0
:102a4c00012608e09b1a5b182b60200000f0dcfece
:102a5c00002600e0002600f06fff300070bdc0467d
:082a6c00801400207414002006
:020000040000fa
:102a74000b6970b505000c00002b01d1002070bd5e
:102a8400002804d08369002b01d1fff74dfe0b4bc6
:102a94009c4209d16c680c22a35e002beed021006d
:102aa4002800fef771fbeae7054b9c4201d1ac68b4
:102ab400f1e7044b9c42eed1ec68ece76013002094
:082ac4008013002040130020e4
:020000040000fa
:102acc0000b583b00d4b01930023009380220c4979
:102adc000c48fdf715ff012801d003b000bd72b6fc
:102aec00094b012252421a60084b02321a60084b01
:102afc0000221a6000f04efaefe7c0466c1400207a
:102b0c00283b0000c5260000701400207c14002017
:042b1c008014002001
:020000040000fa
:102b200070b50400856a03695b6a9847002808d17c
:102b300000236b713122a3542000443000f0c4fa0a
:102b400070bd636d1a6890420fd05a6890420ad0e7
:102b50009a680023904204d06b7131230122e25421
:102b6000eae7023302e0012300e000230133f3e748
:020000040000fa
:102b700010b5104b06225a6000f0d2f9fff7cef9db
:102b800000f040f9fef7d9f9fff71cff00f062f9f9
:102b900000f082f908490020fef70cfc074b186092
:102ba00000f080fb00f0eafd00f0cbfdfff7defe59
:102bb00010bdc0460040004120320000301400200b
:020000040000fa
:102bc00070b50e001d000e23c95e90b014000029e0
:102bd00007da00232b60b3891b0611d48023db00a6
:102be0000fe001aa00f04afd0028f2dbf022029b70
:102bf00012021340054a9b185a4253412b60ede7dd
:102c000040230020236010b070bdc04600e0ffffed
:020000040000fa
:102c100010b5064c2378002b07d1054b002b02d0b2
:102c2000044800e000bf0123237010bda013002062
:102c30000000000000000000044b10b5002b03d082
:102c40000349044800e000bf10bdc046000000007a
:082c5000a413002000000000a5
:020000040000fa
:102c58000200431e033315d803041b0e14d1ff339f
:102c680003400c4989688b4210d21b010949486905
:102c78001818836893420bd1037b5a1e93415b4219
:102c8800184070470020fce70020fae70020f8e72a
:082c98000020f6e734120020d1
:020000040000fa
:102ca00010b50a4b98470a4b9847fff7abfa094b08
:102cb000ff229343084a9360084b9847084b984774
:102cc000084b984700f0c4fefee7c0461f2f0000e7
:102cd0001f2f00000000000000ed00e0e92c0000c4
:082ce0001f2f00001f2f000050
:020000040000fa
:102ce80070b500260c4d0d4c641ba410a64209d1ea
:102cf8000026fdf7d9f90a4d0a4c641ba410a64218
:102d080005d170bdb300eb5898470136eee7b30024
:102d1800eb5898470136f2e7bc000000bc00000001
:082d2800bc000000c000000027
:020000040000fa
:102d3000f8b50d00096e06001400d718890418d5df
:102d40009f08bf00d719bc4201d1002008e02a002b
:102d500002cc300000f0e6fc431cf4d101204042dc
:102d6000f8bd21782a00300000f020fb0134431c1c
:082d7000f4d0bc42f5d1e8e704
:020000040000fa
:102d7800002310b50400036043608360818103660b
:102d8800c28103614361836119000822583000f051
:102d980043fe054b24626362044ba362044be36267
:102da800044b236310bdc046293400009130000055
:082db80029330000e53a000098
:020000040000fa
:102dc00070b504000d00002815d00c4a2c23d35cec
:102dd0000020002b00d070bd00f00cfa074b9c6166
:102de000dd6100221a622c2101205854da85044b3f
:102df00084329a75efe70020ede7c046901200207c
:042e0000001c004270
:020000040000fa
:0c2e0400014b82225a60704700400041e0
:020000040000fa
:102e1000eff309800e4b1a6820381060f0c044466a
:102e20004d4656465f46f0c008b572b6fef7f6fe50
:102e300062b60cbc116808681030f0c8a046a946fc
:102e4000b246bb4680f309882038f0c81847c04610
:042e50004c140020fe
:020000040000fa
:102e54000d4b01221a801a00d37b5bb2002bfbdbe3
:102e6400094be422d2001a80084a1a833b229a733f
:102e7400074a0021116001225a731a00d37b5bb206
:102e8400002bfbdb7047c04600340042093d0000c4
:042e940020140020e6
:020000040000fa
:102e98000d4b01221a801a00d37b5bb2002bfbdb9f
:102ea800094be422d2001a80084a1a833b229a73fb
:102eb800074a0021116001225a731a00d37b5bb2c2
:102ec800002bfbdb7047c04600300042093d000084
:042ed800281400209a
:020000040000fa
:102edc00f7b504000700002601914834002c01d1fd
:102eec003000febd6368a5680093009b013b009316
:102efc0001d52468f2e7ab89012b08d90e22ab5e11
:102f0c00013304d029003800019b984706436435ef
:022f1c00ebe7e1
:020000040000fa
:022f1e007047fa
:020000040000fa
:102f20000c4b0d4a1a600d4a1a6102224e215a5466
:102f300001315a54013a09315a5401315a541d3958
:102f4000662058549a315a5401315a54ba32a4392d
:102f50009954704700440041000212000002100022
:020000040000fa
:102f6000002b11d1002a0fd1002900d1002802d056
:102f70000021c943081c07b4024802a1401802906e
:102f800003bdc046f90b000003b4684601b50298c2
:102f9000fdf7a6fd019b9e4602b00cbc7047c046e3
:020000040000fa
:102fa00010b50c4b1968ff2212040a431a60196805
:102fb000ff2212060a431a6000f022fa064b002292
:102fc0001a6000f09df8fef729fe00f0edfc0020ed
:0c2fd00010bdc04620ed00e040140020c1
:020000040000fa
:102fdc001c2101231b04984201d3000c10391b0a3d
:102fec00984201d3000a08391b09984201d3000901
:102ffc00043902a2105c40187047c0460403020258
:0c300c00010101010000000000000000b4
:020000040000fa
:103018000eb410b500249bb00a4b1daa02ca069331
:103028000393094b0190059001a804931994009209
:1030380000f040fc019b1c701bb010bc08bc03b026
:0c3048001847c046ffffff7f0802ffff93
:020000040000fa
:1030540070b50c1e0ed0002a0cd01500022801d920
:10306400280070bd084b002b06d01100200000e0a2
:1030740000bff5e70025f3e78e1820780134fef74a
:0c3084009cfbb442f9d1ebe70000000017
:020000040000fa
:10309000f8b51f008b8905000c001600db0505d56f
:1030a0000e23c95e0022022300f0e6f9a389054a37
:1030b00028001340a38132000e23e15e3b0000f0a4
:0830c000c7f9f8bdffefffffa7
:020000040000fa
:1030c80000b583b000230193006801a9fff71dfc38
:1030d8000023002802d1180003b000bd0133019a73
:1030e800002af8d0024b802252051a600123f2e729
:0430f80004ed00e003
:020000040000fa
:0430fc0000207047f9
:020000040000fa
:103100000b4a13681868203080f30988022080f386
:103110001488bff36f8f3fbcae4608bc04bc62b6d8
:103120001847c046c046c046c046c046c046c04616
:043130004c1400201b
:020000040000fa
:1031340030313233343536373839414243444546e9
:10314400003031323334353637383961626364657f
:103154006600232d302b2000686c4c0065666745a3
:03316400464700db
:020000040000fa
:10316800084a1368002b09d007491818884202d862
:1031780010601800704701235b42fae7034b1360a5
:10318800f2e7c046a0140020b0160020b0140020ba
:020000040000fa
:1031980030b50c6802000832631c02d1026904e0f1
:1031a8001a0053681d68a542fad953684b609960a4
:0e31b8008a605160086103680133036030bd16
:020000040000fa
:1031c60070b506000d00080070434830fff7d5f9ca
:1031d600041e0ad00300002d00d048332360e663a6
:0e31e600256401212000fff7d2fa200070bd01
:020000040000fa
:1031f400094b5b8b5b070dd0074b80221a76793a1b
:103204005a831b7e5b0705d5034b04211a8d1a7e56
:0c3214000a42fbd17047c046001c00427b
:020000040000fa
:103220004c3200000200000020130020ffff0000cd
:10323000000000000000000030390000cc37000022
:0c324000b43a0000a83a000003000000af
:020000040000fa
:10324c009d3a0000c12d0000013a0000913a0000a7
:10325c00d9330000853a0000f92700006d3a0000d0
:0c326c00793a0000f13900003d0f00002d
:020000040000fa
:10327800084b1b681b68002b04d1074b01225242e4
:103288001a607047034b1b68db68db685a68024b9f
:0c3298001a60f6e75014002070140020ab
:020000040000fa
:1032a40010b5074b00225a701a701e210a20fff72e
:1032b40088ff044b18600021034800f00bfc10bd8c
:0c32c400c0120020881400208139000096
:020000040000fa
:1032d0002d2d2d2d2d204150503120697320496e08
:1032e000697420446f6e65202d2d2d2d2d0a000050
:0c32f00054696d65733a2025640a0000e3
:020000040000fa
:1032fc0070b564254a1e55430e0029007031fef747
:10330c00a9fd041e08d000212a00016046600c3083
:0c331c00a060643200f07efb200070bd59
:020000040000fa
:1033280070b50c000e25495f00f0a2f8a389421c75
:1033380003d1054a1340a38170bd80225201134373
:0c334800a3816065f8e7c046ffefffffbf
:020000040000fa
:103354007fb51d00084b0400e0331e682b000029d4
:1033640001d10a0001a9b047431c03d100232b60fb
:0c3374008a33236004b070bd04100020f8
:020000040000fa
:1033800070b500290fd0002a0dd01500002808d1f3
:103390000c008e180120fff7b1fe20700134b442fa
:0c33a000f8d1280070bd0025fbe7c046f6
:020000040000fa
:1033ac00936810b5013b9360002b04da9469a34237
:1033bc0007db0a2905d01368581c10601970080027
:0a33cc0010bdfef7bffb0100f9e79a
:020000040000fa
:0233d60070473e
:020000040000fa
:1033d800074a2c23d35c002b08d0064b84221a758d
:1033e800034b00222c215a541a62da6101207047db
:0833f80090120020001c0042ad
:020000040000fa
:10340000054b00221a6005490a60054a054911600a
:1034100007221a607047c04610e000e018e000e0a4
:0834200014e000e07fbb000096
:020000040000fa
:1034280070b50c000e25495f00f036f8002803db64
:10343800636d1b18636570bda389024a1340a3819d
:08344800f9e7c046ffefffffaa
:020000040000fa
:1034500070b50500080011000022064c22601a0019
:1034600000f07afb431c03d12368002b00d02b60b3
:0834700070bdc0460000002001
:020000040000fa
:1034780070b50500080011000022064c22601a00f1
:1034880000f05efb431c03d12368002b00d02b60a7
:0834980070bdc04600000020d9
:020000040000fa
:1034a00070b50500080011000022064c22601a00c9
:1034b00000f04efb431c03d12368002b00d02b608f
:0834c00070bdc04600000020b1
:020000040000fa
:1034c8000369416882688a60416851605a6882422b
:1034d80006d0002202611a68013a1a60186870471b
:0634e80082685a60f5e75e
:020000040000fa
:0234ee00704725
:020000040000fa
:1034f00010b5074b994207d00068fdf783fc0138ef
:103500004342584140b210bd01214942f4e7c04650
:04351000ffff0000b9
:020000040000fa
:1035140010b5074b994207d00068fdf771fc0138dc
:103524004342584140b210bd01214942f4e7c0462c
:04353400ffff000095
:020000040000fa
:10353800415050315f5461736b73000041505032f9
:103548005f5461736b730000415050335f54617373
:043558006b73000091
:020000040000fa
:10355c0010b500f0dffa0400fdf784fd002803d05d
:10356c00034b802252051a60200000f0f7fa10bdc0
:04357c0004ed00e07a
:020000040000fa
:1035800010b50c00026c002a0bd0c3689b18c360f6
:1035900081688b4201d30368c360c168200000f0da
:0435a00015fa10bd4b
:020000040000fa
:1035a40010b5020000210120fff70bfe041e07d016
:1035b400002383600360c36000220021fdf77cffc9
:0435c400200010bd16
:020000040000fa
:1035c80010b5064b987bc0b201229a73044b1b6856
:1035d800002b02d0024a5168984710bd00340042bf
:0435e800201400208b
:020000040000fa
:1035ec0010b5064b987bc0b201229a73044b1b6832
:1035fc00002b02d0024a5168984710bd003000429f
:04360c00281400205e
:020000040000fa
:1036100082b0002900d101a9101e06d0002b06d0cf
:1036200013780b601078431e984102b07047022057
:043630004042fae733
:020000040000fa
:10363400002370b5064c050008002360fff792fdd7
:10364400431c03d12368002b00d02b6070bdc046ff
:043654000000002052
:020000040000fa
:10365800002370b5064c05000800236000f064faea
:10366800431c03d12368002b00d02b6070bdc046db
:04367800000000202e
:020000040000fa
:10367c00002370b5064c050008001100236000f013
:10368c0055fa431c03d12368002b00d02b6070bd6e
:04369c00000000200a
:020000040000fa
:1036a000002370b5064c05000800236000f048fabe
:1036b000431c03d12368002b00d02b6070bdc04693
:0436c00000000020e6
:020000040000fa
:1036c40010b5031f802464041c60043b1960043b90
:1036d40002491960143b1a60403810bda939000032
:020000040000fa
:1036e40010b5041e09d000f091f900212000fef766
:1036f40013fefef74df9002801d100f071f810bd5a
:020000040000fa
:103704002d2d2d2d2d204150503220697320496ece
:10371400697420446f6e65202d2d2d2d2d0a000017
:020000040000fa
:1037240010b50c23d45e80239b011c4204d11c439e
:0e3734009481146e23431366fef76afe10bde7
:020000040000fa
:023742007047ce
:020000040000fa
:1037440010b50c00044b19681831fff723fd012153
:0c3754002000fef7e1fd10bd4c14002029
:020000040000fa
:10376000054b1b68002b04d0034b1a68936c013384
:0c3770009364014b186870474c14002053
:020000040000fa
:10377c0010b5044b00221a700021034800f0a0f988
:0c378c0010bdc046f0120020953900006e
:020000040000fa
:1037980010b5040000202368002b00d010bd0130b4
:0a37a800fff7fcfe20600120f8e7a7
:020000040000fa
:1037b20010b50068002300220021fdf77efe0138cb
:0837c2004342584140b210bd22
:020000040000fa
:0237ca00704746
:020000040000fa
:1037cc00020000000000000000000800ffffffffe7
:0837dc00ffffffffffffffffed
:020000040000fa
:1037e400044b802252051a60bff34f8fbff36f8fd3
:0837f4007047c04604ed00e03f
:020000040000fa
:1037fc0072b6044a136801331360bff34f8fbff3e3
:08380c006f8f7047401400208b
:020000040000fa
:10381400034b1b680360034b1b6843607047c0463f
:08382400741400208014002040
:020000040000fa
:10382c0010b5fa208000fff757ff024b802292025e
:08383c00da6110bd00440041f7
:020000040000fa
:10384400044a138802210b431380d37b5bb2002b01
:08385400fbdb70470034004269
:020000040000fa
:10385c00044a138802218b431380d37b5bb2002b69
:08386c00fbdb70470034004251
:020000040000fa
:10387400044a138802210b431380d37b5bb2002bd1
:08388400fbdb7047003000423d
:020000040000fa
:10388c00044a138802218b431380d37b5bb2002b39
:08389c00fbdb70470030004225
:020000040000fa
:1038a40010b5002903d1fff797fb203002e0081c74
:0838b400fff792fb10bdc046b6
:020000040000fa
:1038bc0010b513000a00010002480068fcf73efe38
:0838cc0010bdc0469414002059
:020000040000fa
:1038d4000b1e04d0ff2a04d98a2303608b3b1800f3
:0838e40070470a700123fae7a6
:020000040000fa
:1038ec00030008334360012252428260c3600361cb
:0638fc0000230360704789
:020000040000fa
:1039020043684b609a688a605160996008610368f5
:0639120001330360704761
:020000040000fa
:10391800c9b28218904201d10020704703788b42c7
:06392800fbd00130f6e7c0
:020000040000fa
:02392e007047e0
:020000040000fa
:103930000500000006000000070000000000000075
:043940000100000082
:020000040000fa
:10394400034a1368013b1360002b00d162b6704731
:0439540040140020fb
:020000040000fa
:1039580010b50400fff74effa46bfff7efff6042be
:04396800604110bded
:020000040000fa
:10396c0010b50c0002220021fff727fc002800d024
:04397c00846310bd93
:020000040000fa
:1039800010b5034b01221a70fff780ff10bdc0462f
:04399000a51400205a
:020000040000fa
:1039940010b5034b01221a70fff75eff10bdc0463d
:0439a400a714002044
:020000040000fa
:1039a80082b00023019372b6019b002bfcd002b0b9
:0239b800704756
:020000040000fa
:1039ba0010b50400fff71dffa46bfff7beff200040
:0239ca0010bd2e
:020000040000fa
:1039cc00002310b59a4200d110bdcc5cc454013315
:0239dc00f8e70a
:020000040000fa
:1039de0010b530230022c2544030fff76efb10bded
:020000040000fa
:1039f000024bd88d80b20022da85704790120020e9
:020000040000fa
:103a0000024a2c23d05cc0b27047c04690120020fe
:020000040000fa
:103a1000024a1368013313607047c04660140020e7
:020000040000fa
:103a200003001218934200d1704719700133f9e76f
:020000040000fa
:103a300010b50249fff752fa10bdc046752a0000c2
:020000040000fa
:103a40009423024a5b00d05c7047c04604100020fb
:020000040000fa
:0e3a500010b50020fff78cf8fef700fefce733
:020000040000fa
:0e3a5e000023c25c0133002afbd1581e7047c2
:020000040000fa
:0c3a6c00014b187dc0b270479012002082
:020000040000fa
:0c3a7800014b98687047c0469012002077
:020000040000fa
:0c3a8400014bd8601961704790120020bf
:020000040000fa
:0c3a9000014b186a7047c04690120020dd
:020000040000fa
:0c3a9c00014b58629962704790120020a4
:020000040000fa
:0c3aa8000400000000000000020000000c
:020000040000fa
:0c3ab40000000000ffffffff40000000ca
:020000040000fa
:0c3ac000014b01221a60704784140020a2
:020000040000fa
:0c3acc00014b1860596070472014002066
:020000040000fa
:0c3ad800014b1860596070472814002052
:020000040000fa
:0c3ae40010b50e23c95efff7b5fd10bd44
:020000040000fa
:0c3af00080239b0100204b607047c04603
:020000040000fa
:0b3afc004300504f53495800002e00bb
:020000040000fa
:083b080010b5fef7e9f8fce737
:020000040000fa
:083b100010b5fef745f9fce7d2
:020000040000fa
:083b180010b5fff787fefce782
:020000040000fa
:083b2000eff3108072b670474c
:020000040000fa
:083b280049444c450000c04671
:020000040000fa
:083b300010b500f015f810bdfe
:020000040000fa
:083b380010b5fff7d9ff10bd25
:020000040000fa
:083b400010b500f01ff810bde4
:020000040000fa
:083b480010b500f01df810bdde
:020000040000fa
:083b500010b5fff715fc10bdd4
:020000040000fa
:083b580010b5fff77bfa10bd68
:020000040000fa
:083b6000012040427047c046fd
:020000040000fa
:063b680080f31088704795
:020000040000fa
:063b6e0000230361704713
:020000040000fa
:043b740072b6fee740
:020000040000fa
:043b780072b6fee73c
:020000040000fa
:043b7c007047c04688
:020000040000fa
:043b8000d41100203c
:020000040000fa
:043b84000120704765
:020000040000fa
:043b88000020704762
:020000040000fa
:0200000400807a
:0440000077c700d8a6
:020000040000fa
:0200000400807a
:044004005c00ffff5e
:00000001FF
